{
  "_format": "hh-sol-artifact-1",
  "contractName": "EventTicketNFT",
  "sourceName": "contracts/EventTicketNFT.sol",
  "abi": [
    {
      "inputs": [
        {
          "internalType": "string",
          "name": "_eventName",
          "type": "string"
        },
        {
          "internalType": "string",
          "name": "_symbol",
          "type": "string"
        },
        {
          "internalType": "uint256",
          "name": "_maxTickets",
          "type": "uint256"
        },
        {
          "internalType": "uint256",
          "name": "_ticketPrice",
          "type": "uint256"
        },
        {
          "internalType": "string",
          "name": "_baseURI",
          "type": "string"
        }
      ],
      "stateMutability": "nonpayable",
      "type": "constructor"
    },
    {
      "inputs": [],
      "name": "ERC721EnumerableForbiddenBatchMint",
      "type": "error"
    },
    {
      "inputs": [
        {
          "internalType": "address",
          "name": "sender",
          "type": "address"
        },
        {
          "internalType": "uint256",
          "name": "tokenId",
          "type": "uint256"
        },
        {
          "internalType": "address",
          "name": "owner",
          "type": "address"
        }
      ],
      "name": "ERC721IncorrectOwner",
      "type": "error"
    },
    {
      "inputs": [
        {
          "internalType": "address",
          "name": "operator",
          "type": "address"
        },
        {
          "internalType": "uint256",
          "name": "tokenId",
          "type": "uint256"
        }
      ],
      "name": "ERC721InsufficientApproval",
      "type": "error"
    },
    {
      "inputs": [
        {
          "internalType": "address",
          "name": "approver",
          "type": "address"
        }
      ],
      "name": "ERC721InvalidApprover",
      "type": "error"
    },
    {
      "inputs": [
        {
          "internalType": "address",
          "name": "operator",
          "type": "address"
        }
      ],
      "name": "ERC721InvalidOperator",
      "type": "error"
    },
    {
      "inputs": [
        {
          "internalType": "address",
          "name": "owner",
          "type": "address"
        }
      ],
      "name": "ERC721InvalidOwner",
      "type": "error"
    },
    {
      "inputs": [
        {
          "internalType": "address",
          "name": "receiver",
          "type": "address"
        }
      ],
      "name": "ERC721InvalidReceiver",
      "type": "error"
    },
    {
      "inputs": [
        {
          "internalType": "address",
          "name": "sender",
          "type": "address"
        }
      ],
      "name": "ERC721InvalidSender",
      "type": "error"
    },
    {
      "inputs": [
        {
          "internalType": "uint256",
          "name": "tokenId",
          "type": "uint256"
        }
      ],
      "name": "ERC721NonexistentToken",
      "type": "error"
    },
    {
      "inputs": [
        {
          "internalType": "address",
          "name": "owner",
          "type": "address"
        },
        {
          "internalType": "uint256",
          "name": "index",
          "type": "uint256"
        }
      ],
      "name": "ERC721OutOfBoundsIndex",
      "type": "error"
    },
    {
      "inputs": [
        {
          "internalType": "address",
          "name": "owner",
          "type": "address"
        }
      ],
      "name": "OwnableInvalidOwner",
      "type": "error"
    },
    {
      "inputs": [
        {
          "internalType": "address",
          "name": "account",
          "type": "address"
        }
      ],
      "name": "OwnableUnauthorizedAccount",
      "type": "error"
    },
    {
      "anonymous": false,
      "inputs": [
        {
          "indexed": true,
          "internalType": "address",
          "name": "owner",
          "type": "address"
        },
        {
          "indexed": true,
          "internalType": "address",
          "name": "approved",
          "type": "address"
        },
        {
          "indexed": true,
          "internalType": "uint256",
          "name": "tokenId",
          "type": "uint256"
        }
      ],
      "name": "Approval",
      "type": "event"
    },
    {
      "anonymous": false,
      "inputs": [
        {
          "indexed": true,
          "internalType": "address",
          "name": "owner",
          "type": "address"
        },
        {
          "indexed": true,
          "internalType": "address",
          "name": "operator",
          "type": "address"
        },
        {
          "indexed": false,
          "internalType": "bool",
          "name": "approved",
          "type": "bool"
        }
      ],
      "name": "ApprovalForAll",
      "type": "event"
    },
    {
      "anonymous": false,
      "inputs": [
        {
          "indexed": true,
          "internalType": "address",
          "name": "previousOwner",
          "type": "address"
        },
        {
          "indexed": true,
          "internalType": "address",
          "name": "newOwner",
          "type": "address"
        }
      ],
      "name": "OwnershipTransferred",
      "type": "event"
    },
    {
      "anonymous": false,
      "inputs": [
        {
          "indexed": false,
          "internalType": "address",
          "name": "buyer",
          "type": "address"
        },
        {
          "indexed": false,
          "internalType": "uint256",
          "name": "tokenId",
          "type": "uint256"
        },
        {
          "indexed": false,
          "internalType": "address",
          "name": "contractAddress",
          "type": "address"
        }
      ],
      "name": "TicketBuyedSuccessfully",
      "type": "event"
    },
    {
      "anonymous": false,
      "inputs": [
        {
          "indexed": true,
          "internalType": "address",
          "name": "from",
          "type": "address"
        },
        {
          "indexed": true,
          "internalType": "address",
          "name": "to",
          "type": "address"
        },
        {
          "indexed": true,
          "internalType": "uint256",
          "name": "tokenId",
          "type": "uint256"
        }
      ],
      "name": "Transfer",
      "type": "event"
    },
    {
      "inputs": [
        {
          "internalType": "address",
          "name": "to",
          "type": "address"
        },
        {
          "internalType": "uint256",
          "name": "tokenId",
          "type": "uint256"
        }
      ],
      "name": "approve",
      "outputs": [],
      "stateMutability": "nonpayable",
      "type": "function"
    },
    {
      "inputs": [
        {
          "internalType": "address",
          "name": "owner",
          "type": "address"
        }
      ],
      "name": "balanceOf",
      "outputs": [
        {
          "internalType": "uint256",
          "name": "",
          "type": "uint256"
        }
      ],
      "stateMutability": "view",
      "type": "function"
    },
    {
      "inputs": [
        {
          "internalType": "uint256",
          "name": "tokenId",
          "type": "uint256"
        }
      ],
      "name": "buyResaleTicket",
      "outputs": [],
      "stateMutability": "payable",
      "type": "function"
    },
    {
      "inputs": [
        {
          "internalType": "uint8",
          "name": "number",
          "type": "uint8"
        }
      ],
      "name": "buyTicket",
      "outputs": [],
      "stateMutability": "payable",
      "type": "function"
    },
    {
      "inputs": [
        {
          "internalType": "uint256",
          "name": "tokenId",
          "type": "uint256"
        }
      ],
      "name": "exists",
      "outputs": [
        {
          "internalType": "bool",
          "name": "",
          "type": "bool"
        }
      ],
      "stateMutability": "view",
      "type": "function"
    },
    {
      "inputs": [
        {
          "internalType": "uint256",
          "name": "tokenId",
          "type": "uint256"
        }
      ],
      "name": "getApproved",
      "outputs": [
        {
          "internalType": "address",
          "name": "",
          "type": "address"
        }
      ],
      "stateMutability": "view",
      "type": "function"
    },
    {
      "inputs": [
        {
          "internalType": "address",
          "name": "nftContract",
          "type": "address"
        },
        {
          "internalType": "address",
          "name": "owner",
          "type": "address"
        }
      ],
      "name": "getTokensOfOwner",
      "outputs": [
        {
          "internalType": "uint256[]",
          "name": "",
          "type": "uint256[]"
        }
      ],
      "stateMutability": "view",
      "type": "function"
    },
    {
      "inputs": [
        {
          "internalType": "address",
          "name": "owner",
          "type": "address"
        },
        {
          "internalType": "address",
          "name": "operator",
          "type": "address"
        }
      ],
      "name": "isApprovedForAll",
      "outputs": [
        {
          "internalType": "bool",
          "name": "",
          "type": "bool"
        }
      ],
      "stateMutability": "view",
      "type": "function"
    },
    {
      "inputs": [
        {
          "internalType": "uint256",
          "name": "tokenId",
          "type": "uint256"
        },
        {
          "internalType": "uint256",
          "name": "price",
          "type": "uint256"
        }
      ],
      "name": "listForResale",
      "outputs": [],
      "stateMutability": "nonpayable",
      "type": "function"
    },
    {
      "inputs": [],
      "name": "maxTickets",
      "outputs": [
        {
          "internalType": "uint256",
          "name": "",
          "type": "uint256"
        }
      ],
      "stateMutability": "view",
      "type": "function"
    },
    {
      "inputs": [],
      "name": "name",
      "outputs": [
        {
          "internalType": "string",
          "name": "",
          "type": "string"
        }
      ],
      "stateMutability": "view",
      "type": "function"
    },
    {
      "inputs": [],
      "name": "owner",
      "outputs": [
        {
          "internalType": "address",
          "name": "",
          "type": "address"
        }
      ],
      "stateMutability": "view",
      "type": "function"
    },
    {
      "inputs": [
        {
          "internalType": "uint256",
          "name": "tokenId",
          "type": "uint256"
        }
      ],
      "name": "ownerOf",
      "outputs": [
        {
          "internalType": "address",
          "name": "",
          "type": "address"
        }
      ],
      "stateMutability": "view",
      "type": "function"
    },
    {
      "inputs": [],
      "name": "remainingTickets",
      "outputs": [
        {
          "internalType": "uint256",
          "name": "",
          "type": "uint256"
        }
      ],
      "stateMutability": "view",
      "type": "function"
    },
    {
      "inputs": [],
      "name": "renounceOwnership",
      "outputs": [],
      "stateMutability": "nonpayable",
      "type": "function"
    },
    {
      "inputs": [
        {
          "internalType": "uint256",
          "name": "",
          "type": "uint256"
        }
      ],
      "name": "resalePrice",
      "outputs": [
        {
          "internalType": "uint256",
          "name": "",
          "type": "uint256"
        }
      ],
      "stateMutability": "view",
      "type": "function"
    },
    {
      "inputs": [
        {
          "internalType": "address",
          "name": "from",
          "type": "address"
        },
        {
          "internalType": "address",
          "name": "to",
          "type": "address"
        },
        {
          "internalType": "uint256",
          "name": "tokenId",
          "type": "uint256"
        }
      ],
      "name": "safeTransferFrom",
      "outputs": [],
      "stateMutability": "nonpayable",
      "type": "function"
    },
    {
      "inputs": [
        {
          "internalType": "address",
          "name": "from",
          "type": "address"
        },
        {
          "internalType": "address",
          "name": "to",
          "type": "address"
        },
        {
          "internalType": "uint256",
          "name": "tokenId",
          "type": "uint256"
        },
        {
          "internalType": "bytes",
          "name": "data",
          "type": "bytes"
        }
      ],
      "name": "safeTransferFrom",
      "outputs": [],
      "stateMutability": "nonpayable",
      "type": "function"
    },
    {
      "inputs": [
        {
          "internalType": "address",
          "name": "operator",
          "type": "address"
        },
        {
          "internalType": "bool",
          "name": "approved",
          "type": "bool"
        }
      ],
      "name": "setApprovalForAll",
      "outputs": [],
      "stateMutability": "nonpayable",
      "type": "function"
    },
    {
      "inputs": [
        {
          "internalType": "bytes4",
          "name": "interfaceId",
          "type": "bytes4"
        }
      ],
      "name": "supportsInterface",
      "outputs": [
        {
          "internalType": "bool",
          "name": "",
          "type": "bool"
        }
      ],
      "stateMutability": "view",
      "type": "function"
    },
    {
      "inputs": [],
      "name": "symbol",
      "outputs": [
        {
          "internalType": "string",
          "name": "",
          "type": "string"
        }
      ],
      "stateMutability": "view",
      "type": "function"
    },
    {
      "inputs": [],
      "name": "ticketPrice",
      "outputs": [
        {
          "internalType": "uint256",
          "name": "",
          "type": "uint256"
        }
      ],
      "stateMutability": "view",
      "type": "function"
    },
    {
      "inputs": [],
      "name": "ticketsMinted",
      "outputs": [
        {
          "internalType": "uint256",
          "name": "",
          "type": "uint256"
        }
      ],
      "stateMutability": "view",
      "type": "function"
    },
    {
      "inputs": [
        {
          "internalType": "uint256",
          "name": "index",
          "type": "uint256"
        }
      ],
      "name": "tokenByIndex",
      "outputs": [
        {
          "internalType": "uint256",
          "name": "",
          "type": "uint256"
        }
      ],
      "stateMutability": "view",
      "type": "function"
    },
    {
      "inputs": [
        {
          "internalType": "address",
          "name": "owner",
          "type": "address"
        },
        {
          "internalType": "uint256",
          "name": "index",
          "type": "uint256"
        }
      ],
      "name": "tokenOfOwnerByIndex",
      "outputs": [
        {
          "internalType": "uint256",
          "name": "",
          "type": "uint256"
        }
      ],
      "stateMutability": "view",
      "type": "function"
    },
    {
      "inputs": [
        {
          "internalType": "uint256",
          "name": "tokenId",
          "type": "uint256"
        }
      ],
      "name": "tokenURI",
      "outputs": [
        {
          "internalType": "string",
          "name": "",
          "type": "string"
        }
      ],
      "stateMutability": "view",
      "type": "function"
    },
    {
      "inputs": [],
      "name": "totalSupply",
      "outputs": [
        {
          "internalType": "uint256",
          "name": "",
          "type": "uint256"
        }
      ],
      "stateMutability": "view",
      "type": "function"
    },
    {
      "inputs": [
        {
          "internalType": "address",
          "name": "from",
          "type": "address"
        },
        {
          "internalType": "address",
          "name": "to",
          "type": "address"
        },
        {
          "internalType": "uint256",
          "name": "tokenId",
          "type": "uint256"
        }
      ],
      "name": "transferFrom",
      "outputs": [],
      "stateMutability": "nonpayable",
      "type": "function"
    },
    {
      "inputs": [
        {
          "internalType": "address",
          "name": "newOwner",
          "type": "address"
        }
      ],
      "name": "transferOwnership",
      "outputs": [],
      "stateMutability": "nonpayable",
      "type": "function"
    },
    {
      "inputs": [],
      "name": "withdraw",
      "outputs": [],
      "stateMutability": "nonpayable",
      "type": "function"
    }
  ],
  "bytecode": "0x608060405234801561001057600080fd5b50604051613f97380380613f9783398181016040528101906100329190610372565b33858581600090816100449190610658565b5080600190816100549190610658565b505050600073ffffffffffffffffffffffffffffffffffffffff168173ffffffffffffffffffffffffffffffffffffffff16036100c95760006040517f1e4fbdf70000000000000000000000000000000000000000000000000000000081526004016100c0919061076b565b60405180910390fd5b6100d88161010160201b60201c565b5082600b8190555081600c8190555080600e90816100f69190610658565b505050505050610786565b6000600a60009054906101000a900473ffffffffffffffffffffffffffffffffffffffff16905081600a60006101000a81548173ffffffffffffffffffffffffffffffffffffffff021916908373ffffffffffffffffffffffffffffffffffffffff1602179055508173ffffffffffffffffffffffffffffffffffffffff168173ffffffffffffffffffffffffffffffffffffffff167f8be0079c531659141344cd1fd0a4f28419497f9722a3daafe3b4186f6b6457e060405160405180910390a35050565b6000604051905090565b600080fd5b600080fd5b600080fd5b600080fd5b6000601f19601f8301169050919050565b7f4e487b7100000000000000000000000000000000000000000000000000000000600052604160045260246000fd5b61022e826101e5565b810181811067ffffffffffffffff8211171561024d5761024c6101f6565b5b80604052505050565b60006102606101c7565b905061026c8282610225565b919050565b600067ffffffffffffffff82111561028c5761028b6101f6565b5b610295826101e5565b9050602081019050919050565b60005b838110156102c05780820151818401526020810190506102a5565b60008484015250505050565b60006102df6102da84610271565b610256565b9050828152602081018484840111156102fb576102fa6101e0565b5b6103068482856102a2565b509392505050565b600082601f830112610323576103226101db565b5b81516103338482602086016102cc565b91505092915050565b6000819050919050565b61034f8161033c565b811461035a57600080fd5b50565b60008151905061036c81610346565b92915050565b600080600080600060a0868803121561038e5761038d6101d1565b5b600086015167ffffffffffffffff8111156103ac576103ab6101d6565b5b6103b88882890161030e565b955050602086015167ffffffffffffffff8111156103d9576103d86101d6565b5b6103e58882890161030e565b94505060406103f68882890161035d565b93505060606104078882890161035d565b925050608086015167ffffffffffffffff811115610428576104276101d6565b5b6104348882890161030e565b9150509295509295909350565b600081519050919050565b7f4e487b7100000000000000000000000000000000000000000000000000000000600052602260045260246000fd5b6000600282049050600182168061049357607f821691505b6020821081036104a6576104a561044c565b5b50919050565b60008190508160005260206000209050919050565b60006020601f8301049050919050565b600082821b905092915050565b60006008830261050e7fffffffffffffffffffffffffffffffffffffffffffffffffffffffffffffffff826104d1565b61051886836104d1565b95508019841693508086168417925050509392505050565b6000819050919050565b600061055561055061054b8461033c565b610530565b61033c565b9050919050565b6000819050919050565b61056f8361053a565b61058361057b8261055c565b8484546104de565b825550505050565b600090565b61059861058b565b6105a3818484610566565b505050565b5b818110156105c7576105bc600082610590565b6001810190506105a9565b5050565b601f82111561060c576105dd816104ac565b6105e6846104c1565b810160208510156105f5578190505b610609610601856104c1565b8301826105a8565b50505b505050565b600082821c905092915050565b600061062f60001984600802610611565b1980831691505092915050565b6000610648838361061e565b9150826002028217905092915050565b61066182610441565b67ffffffffffffffff81111561067a576106796101f6565b5b610684825461047b565b61068f8282856105cb565b600060209050601f8311600181146106c257600084156106b0578287015190505b6106ba858261063c565b865550610722565b601f1984166106d0866104ac565b60005b828110156106f8578489015182556001820191506020850194506020810190506106d3565b868310156107155784890151610711601f89168261061e565b8355505b6001600288020188555050505b505050505050565b600073ffffffffffffffffffffffffffffffffffffffff82169050919050565b60006107558261072a565b9050919050565b6107658161074a565b82525050565b6000602082019050610780600083018461075c565b92915050565b613802806107956000396000f3fe6080604052600436106101cd5760003560e01c80634f6ccce7116100f757806395d89b4111610095578063b88d4fde11610064578063b88d4fde14610682578063c87b56dd146106ab578063e985e9c5146106e8578063f2fde38b14610725576101cd565b806395d89b41146105d85780639b89470314610603578063a22cb4651461062e578063a35a343614610657576101cd565b806370a08231116100d157806370a082311461051c578063715018a61461055957806372780731146105705780638da5cb5b146105ad576101cd565b80634f6ccce7146104775780635d504832146104b45780636352211e146104df576101cd565b806318160ddd1161016f5780632f745c591161013e5780632f745c59146103bd5780633ccfd60b146103fa57806342842e0e146104115780634f558e791461043a576101cd565b806318160ddd146103245780631d9c5d5c1461034f5780631f7d863c1461036b57806323b872dd14610394576101cd565b806306fdde03116101ab57806306fdde0314610268578063081812fc14610293578063095ea7b3146102d05780631209b1f6146102f9576101cd565b806301ffc9a7146101d2578063023697f01461020f5780630384ca491461022b575b600080fd5b3480156101de57600080fd5b506101f960048036038101906101f491906128ab565b61074e565b60405161020691906128f3565b60405180910390f35b61022960048036038101906102249190612947565b6107c8565b005b34801561023757600080fd5b50610252600480360381019061024d91906129aa565b610914565b60405161025f91906129e6565b60405180910390f35b34801561027457600080fd5b5061027d61092c565b60405161028a9190612a91565b60405180910390f35b34801561029f57600080fd5b506102ba60048036038101906102b591906129aa565b6109be565b6040516102c79190612af4565b60405180910390f35b3480156102dc57600080fd5b506102f760048036038101906102f29190612b3b565b6109da565b005b34801561030557600080fd5b5061030e6109f0565b60405161031b91906129e6565b60405180910390f35b34801561033057600080fd5b506103396109f6565b60405161034691906129e6565b60405180910390f35b610369600480360381019061036491906129aa565b610a03565b005b34801561037757600080fd5b50610392600480360381019061038d9190612b7b565b610b8b565b005b3480156103a057600080fd5b506103bb60048036038101906103b69190612bbb565b610c60565b005b3480156103c957600080fd5b506103e460048036038101906103df9190612b3b565b610d62565b6040516103f191906129e6565b60405180910390f35b34801561040657600080fd5b5061040f610e0b565b005b34801561041d57600080fd5b5061043860048036038101906104339190612bbb565b610e63565b005b34801561044657600080fd5b50610461600480360381019061045c91906129aa565b610e83565b60405161046e91906128f3565b60405180910390f35b34801561048357600080fd5b5061049e600480360381019061049991906129aa565b610ead565b6040516104ab91906129e6565b60405180910390f35b3480156104c057600080fd5b506104c9610f23565b6040516104d691906129e6565b60405180910390f35b3480156104eb57600080fd5b50610506600480360381019061050191906129aa565b610f3a565b6040516105139190612af4565b60405180910390f35b34801561052857600080fd5b50610543600480360381019061053e9190612c0e565b610f4c565b60405161055091906129e6565b60405180910390f35b34801561056557600080fd5b5061056e611006565b005b34801561057c57600080fd5b5061059760048036038101906105929190612c3b565b61101a565b6040516105a49190612d39565b60405180910390f35b3480156105b957600080fd5b506105c26111ac565b6040516105cf9190612af4565b60405180910390f35b3480156105e457600080fd5b506105ed6111d6565b6040516105fa9190612a91565b60405180910390f35b34801561060f57600080fd5b50610618611268565b60405161062591906129e6565b60405180910390f35b34801561063a57600080fd5b5061065560048036038101906106509190612d87565b61126e565b005b34801561066357600080fd5b5061066c611284565b60405161067991906129e6565b60405180910390f35b34801561068e57600080fd5b506106a960048036038101906106a49190612efc565b61128a565b005b3480156106b757600080fd5b506106d260048036038101906106cd91906129aa565b6112af565b6040516106df9190612a91565b60405180910390f35b3480156106f457600080fd5b5061070f600480360381019061070a9190612c3b565b61132b565b60405161071c91906128f3565b60405180910390f35b34801561073157600080fd5b5061074c60048036038101906107479190612c0e565b6113bf565b005b60007f780e9d63000000000000000000000000000000000000000000000000000000007bffffffffffffffffffffffffffffffffffffffffffffffffffffffff1916827bffffffffffffffffffffffffffffffffffffffffffffffffffffffff191614806107c157506107c082611445565b5b9050919050565b600b54600d541061080e576040517f08c379a000000000000000000000000000000000000000000000000000000000815260040161080590612fcb565b60405180910390fd5b600c543414610852576040517f08c379a000000000000000000000000000000000000000000000000000000000815260040161084990613037565b60405180910390fd5b600080600090505b8260ff168160ff1610156108e3576001600d546108779190613086565b9150600d600081548092919061088c906130ba565b919050555061089b3383611527565b7f33940af6ce549655ada965c6d549ec9fca0efc16a0e26b1649f4a509fc14e86d3383306040516108ce93929190613102565b60405180910390a1808060010191505061085a565b5060016010600083815260200190815260200160002060006101000a81548160ff0219169083151502179055505050565b600f6020528060005260406000206000915090505481565b60606000805461093b90613168565b80601f016020809104026020016040519081016040528092919081815260200182805461096790613168565b80156109b45780601f10610989576101008083540402835291602001916109b4565b820191906000526020600020905b81548152906001019060200180831161099757829003601f168201915b5050505050905090565b60006109c982611545565b506109d3826115cd565b9050919050565b6109ec82826109e761160a565b611612565b5050565b600c5481565b6000600880549050905090565b6000600f60008381526020019081526020016000205490506000610a2683610f3a565b905060008211610a6b576040517f08c379a0000000000000000000000000000000000000000000000000000000008152600401610a62906131e5565b60405180910390fd5b813414610aad576040517f08c379a0000000000000000000000000000000000000000000000000000000008152600401610aa490613037565b60405180910390fd5b3373ffffffffffffffffffffffffffffffffffffffff168173ffffffffffffffffffffffffffffffffffffffff1603610b1b576040517f08c379a0000000000000000000000000000000000000000000000000000000008152600401610b1290613251565b60405180910390fd5b6000600f600085815260200190815260200160002081905550610b3f813385611624565b8073ffffffffffffffffffffffffffffffffffffffff166108fc349081150290604051600060405180830381858888f19350505050158015610b85573d6000803e3d6000fd5b50505050565b3373ffffffffffffffffffffffffffffffffffffffff16610bab83610f3a565b73ffffffffffffffffffffffffffffffffffffffff1614610c01576040517f08c379a0000000000000000000000000000000000000000000000000000000008152600401610bf8906132bd565b60405180910390fd5b60008111610c44576040517f08c379a0000000000000000000000000000000000000000000000000000000008152600401610c3b90613329565b60405180910390fd5b80600f6000848152602001908152602001600020819055505050565b600073ffffffffffffffffffffffffffffffffffffffff168273ffffffffffffffffffffffffffffffffffffffff1603610cd25760006040517f64a0ae92000000000000000000000000000000000000000000000000000000008152600401610cc99190612af4565b60405180910390fd5b6000610ce68383610ce161160a565b611791565b90508373ffffffffffffffffffffffffffffffffffffffff168173ffffffffffffffffffffffffffffffffffffffff1614610d5c578382826040517f64283d7b000000000000000000000000000000000000000000000000000000008152600401610d5393929190613102565b60405180910390fd5b50505050565b6000610d6d83610f4c565b8210610db25782826040517fa57d13dc000000000000000000000000000000000000000000000000000000008152600401610da9929190613349565b60405180910390fd5b600660008473ffffffffffffffffffffffffffffffffffffffff1673ffffffffffffffffffffffffffffffffffffffff168152602001908152602001600020600083815260200190815260200160002054905092915050565b610e136118ae565b610e1b6111ac565b73ffffffffffffffffffffffffffffffffffffffff166108fc479081150290604051600060405180830381858888f19350505050158015610e60573d6000803e3d6000fd5b50565b610e7e8383836040518060200160405280600081525061128a565b505050565b60006010600083815260200190815260200160002060009054906101000a900460ff169050919050565b6000610eb76109f6565b8210610efd576000826040517fa57d13dc000000000000000000000000000000000000000000000000000000008152600401610ef4929190613349565b60405180910390fd5b60088281548110610f1157610f10613372565b5b90600052602060002001549050919050565b6000600d54600b54610f3591906133a1565b905090565b6000610f4582611545565b9050919050565b60008073ffffffffffffffffffffffffffffffffffffffff168273ffffffffffffffffffffffffffffffffffffffff1603610fbf5760006040517f89c62b64000000000000000000000000000000000000000000000000000000008152600401610fb69190612af4565b60405180910390fd5b600360008373ffffffffffffffffffffffffffffffffffffffff1673ffffffffffffffffffffffffffffffffffffffff168152602001908152602001600020549050919050565b61100e6118ae565b6110186000611935565b565b6060600083905060008173ffffffffffffffffffffffffffffffffffffffff166370a08231856040518263ffffffff1660e01b815260040161105c9190612af4565b602060405180830381865afa158015611079573d6000803e3d6000fd5b505050506040513d601f19601f8201168201806040525081019061109d91906133ea565b905060008167ffffffffffffffff8111156110bb576110ba612dd1565b5b6040519080825280602002602001820160405280156110e95781602001602082028036833780820191505090505b50905060005b8281101561119f578373ffffffffffffffffffffffffffffffffffffffff16632f745c5987836040518363ffffffff1660e01b8152600401611132929190613349565b602060405180830381865afa15801561114f573d6000803e3d6000fd5b505050506040513d601f19601f8201168201806040525081019061117391906133ea565b82828151811061118657611185613372565b5b60200260200101818152505080806001019150506110ef565b5080935050505092915050565b6000600a60009054906101000a900473ffffffffffffffffffffffffffffffffffffffff16905090565b6060600180546111e590613168565b80601f016020809104026020016040519081016040528092919081815260200182805461121190613168565b801561125e5780601f106112335761010080835404028352916020019161125e565b820191906000526020600020905b81548152906001019060200180831161124157829003601f168201915b5050505050905090565b600b5481565b61128061127961160a565b83836119fb565b5050565b600d5481565b611295848484610c60565b6112a96112a061160a565b85858585611b6a565b50505050565b60606112ba82610e83565b6112f9576040517f08c379a00000000000000000000000000000000000000000000000000000000081526004016112f090613463565b60405180910390fd5b600e61130483611d1b565b6040516020016113159291906135ef565b6040516020818303038152906040529050919050565b6000600560008473ffffffffffffffffffffffffffffffffffffffff1673ffffffffffffffffffffffffffffffffffffffff16815260200190815260200160002060008373ffffffffffffffffffffffffffffffffffffffff1673ffffffffffffffffffffffffffffffffffffffff16815260200190815260200160002060009054906101000a900460ff16905092915050565b6113c76118ae565b600073ffffffffffffffffffffffffffffffffffffffff168173ffffffffffffffffffffffffffffffffffffffff16036114395760006040517f1e4fbdf70000000000000000000000000000000000000000000000000000000081526004016114309190612af4565b60405180910390fd5b61144281611935565b50565b60007f80ac58cd000000000000000000000000000000000000000000000000000000007bffffffffffffffffffffffffffffffffffffffffffffffffffffffff1916827bffffffffffffffffffffffffffffffffffffffffffffffffffffffff1916148061151057507f5b5e139f000000000000000000000000000000000000000000000000000000007bffffffffffffffffffffffffffffffffffffffffffffffffffffffff1916827bffffffffffffffffffffffffffffffffffffffffffffffffffffffff1916145b80611520575061151f82611e87565b5b9050919050565b611541828260405180602001604052806000815250611ef1565b5050565b60008061155183611f15565b9050600073ffffffffffffffffffffffffffffffffffffffff168173ffffffffffffffffffffffffffffffffffffffff16036115c457826040517f7e2732890000000000000000000000000000000000000000000000000000000081526004016115bb91906129e6565b60405180910390fd5b80915050919050565b60006004600083815260200190815260200160002060009054906101000a900473ffffffffffffffffffffffffffffffffffffffff169050919050565b600033905090565b61161f8383836001611f52565b505050565b600073ffffffffffffffffffffffffffffffffffffffff168273ffffffffffffffffffffffffffffffffffffffff16036116965760006040517f64a0ae9200000000000000000000000000000000000000000000000000000000815260040161168d9190612af4565b60405180910390fd5b60006116a483836000611791565b9050600073ffffffffffffffffffffffffffffffffffffffff168173ffffffffffffffffffffffffffffffffffffffff160361171757816040517f7e27328900000000000000000000000000000000000000000000000000000000815260040161170e91906129e6565b60405180910390fd5b8373ffffffffffffffffffffffffffffffffffffffff168173ffffffffffffffffffffffffffffffffffffffff161461178b578382826040517f64283d7b00000000000000000000000000000000000000000000000000000000815260040161178293929190613102565b60405180910390fd5b50505050565b60008061179f858585612117565b9050600073ffffffffffffffffffffffffffffffffffffffff168173ffffffffffffffffffffffffffffffffffffffff16036117e3576117de84612331565b611822565b8473ffffffffffffffffffffffffffffffffffffffff168173ffffffffffffffffffffffffffffffffffffffff161461182157611820818561237a565b5b5b600073ffffffffffffffffffffffffffffffffffffffff168573ffffffffffffffffffffffffffffffffffffffff16036118645761185f84612465565b6118a3565b8473ffffffffffffffffffffffffffffffffffffffff168173ffffffffffffffffffffffffffffffffffffffff16146118a2576118a18585612536565b5b5b809150509392505050565b6118b661160a565b73ffffffffffffffffffffffffffffffffffffffff166118d46111ac565b73ffffffffffffffffffffffffffffffffffffffff1614611933576118f761160a565b6040517f118cdaa700000000000000000000000000000000000000000000000000000000815260040161192a9190612af4565b60405180910390fd5b565b6000600a60009054906101000a900473ffffffffffffffffffffffffffffffffffffffff16905081600a60006101000a81548173ffffffffffffffffffffffffffffffffffffffff021916908373ffffffffffffffffffffffffffffffffffffffff1602179055508173ffffffffffffffffffffffffffffffffffffffff168173ffffffffffffffffffffffffffffffffffffffff167f8be0079c531659141344cd1fd0a4f28419497f9722a3daafe3b4186f6b6457e060405160405180910390a35050565b600073ffffffffffffffffffffffffffffffffffffffff168273ffffffffffffffffffffffffffffffffffffffff1603611a6c57816040517f5b08ba18000000000000000000000000000000000000000000000000000000008152600401611a639190612af4565b60405180910390fd5b80600560008573ffffffffffffffffffffffffffffffffffffffff1673ffffffffffffffffffffffffffffffffffffffff16815260200190815260200160002060008473ffffffffffffffffffffffffffffffffffffffff1673ffffffffffffffffffffffffffffffffffffffff16815260200190815260200160002060006101000a81548160ff0219169083151502179055508173ffffffffffffffffffffffffffffffffffffffff168373ffffffffffffffffffffffffffffffffffffffff167f17307eab39ab6107e8899845ad3d59bd9653f200f220920489ca2b5937696c3183604051611b5d91906128f3565b60405180910390a3505050565b60008373ffffffffffffffffffffffffffffffffffffffff163b1115611d14578273ffffffffffffffffffffffffffffffffffffffff1663150b7a02868685856040518563ffffffff1660e01b8152600401611bc9949392919061367e565b6020604051808303816000875af1925050508015611c0557506040513d601f19601f82011682018060405250810190611c0291906136df565b60015b611c89573d8060008114611c35576040519150601f19603f3d011682016040523d82523d6000602084013e611c3a565b606091505b506000815103611c8157836040517f64a0ae92000000000000000000000000000000000000000000000000000000008152600401611c789190612af4565b60405180910390fd5b805160208201fd5b63150b7a0260e01b7bffffffffffffffffffffffffffffffffffffffffffffffffffffffff1916817bffffffffffffffffffffffffffffffffffffffffffffffffffffffff191614611d1257836040517f64a0ae92000000000000000000000000000000000000000000000000000000008152600401611d099190612af4565b60405180910390fd5b505b5050505050565b606060008203611d62576040518060400160405280600181526020017f30000000000000000000000000000000000000000000000000000000000000008152509050611e82565b600082905060005b60008214611d94578080611d7d906130ba565b915050600a82611d8d919061373b565b9150611d6a565b60008167ffffffffffffffff811115611db057611daf612dd1565b5b6040519080825280601f01601f191660200182016040528015611de25781602001600182028036833780820191505090505b50905060008290505b60008614611e7a57600181611e0091906133a1565b90506000600a87611e11919061376c565b6030611e1d9190613086565b90508060f81b838381518110611e3657611e35613372565b5b60200101907effffffffffffffffffffffffffffffffffffffffffffffffffffffffffffff1916908160001a905350600a87611e72919061373b565b965050611deb565b819450505050505b919050565b60007f01ffc9a7000000000000000000000000000000000000000000000000000000007bffffffffffffffffffffffffffffffffffffffffffffffffffffffff1916827bffffffffffffffffffffffffffffffffffffffffffffffffffffffff1916149050919050565b611efb83836125c1565b611f10611f0661160a565b6000858585611b6a565b505050565b60006002600083815260200190815260200160002060009054906101000a900473ffffffffffffffffffffffffffffffffffffffff169050919050565b8080611f8b5750600073ffffffffffffffffffffffffffffffffffffffff168273ffffffffffffffffffffffffffffffffffffffff1614155b156120bf576000611f9b84611545565b9050600073ffffffffffffffffffffffffffffffffffffffff168373ffffffffffffffffffffffffffffffffffffffff161415801561200657508273ffffffffffffffffffffffffffffffffffffffff168173ffffffffffffffffffffffffffffffffffffffff1614155b80156120195750612017818461132b565b155b1561205b57826040517fa9fbf51f0000000000000000000000000000000000000000000000000000000081526004016120529190612af4565b60405180910390fd5b81156120bd57838573ffffffffffffffffffffffffffffffffffffffff168273ffffffffffffffffffffffffffffffffffffffff167f8c5be1e5ebec7d5bd14f71427d1e84f3dd0314c0f7b2291e5b200ac8c7c3b92560405160405180910390a45b505b836004600085815260200190815260200160002060006101000a81548173ffffffffffffffffffffffffffffffffffffffff021916908373ffffffffffffffffffffffffffffffffffffffff16021790555050505050565b60008061212384611f15565b9050600073ffffffffffffffffffffffffffffffffffffffff168373ffffffffffffffffffffffffffffffffffffffff1614612165576121648184866126ba565b5b600073ffffffffffffffffffffffffffffffffffffffff168173ffffffffffffffffffffffffffffffffffffffff16146121f6576121a7600085600080611f52565b6001600360008373ffffffffffffffffffffffffffffffffffffffff1673ffffffffffffffffffffffffffffffffffffffff168152602001908152602001600020600082825403925050819055505b600073ffffffffffffffffffffffffffffffffffffffff168573ffffffffffffffffffffffffffffffffffffffff1614612279576001600360008773ffffffffffffffffffffffffffffffffffffffff1673ffffffffffffffffffffffffffffffffffffffff168152602001908152602001600020600082825401925050819055505b846002600086815260200190815260200160002060006101000a81548173ffffffffffffffffffffffffffffffffffffffff021916908373ffffffffffffffffffffffffffffffffffffffff160217905550838573ffffffffffffffffffffffffffffffffffffffff168273ffffffffffffffffffffffffffffffffffffffff167fddf252ad1be2c89b69c2b068fc378daa952ba7f163c4a11628f55a4df523b3ef60405160405180910390a4809150509392505050565b6008805490506009600083815260200190815260200160002081905550600881908060018154018082558091505060019003906000526020600020016000909190919091505550565b600061238583610f4c565b90506000600760008481526020019081526020016000205490506000600660008673ffffffffffffffffffffffffffffffffffffffff1673ffffffffffffffffffffffffffffffffffffffff16815260200190815260200160002090508282146124315760008160008581526020019081526020016000205490508082600085815260200190815260200160002081905550826007600083815260200190815260200160002081905550505b6007600085815260200190815260200160002060009055806000848152602001908152602001600020600090555050505050565b6000600160088054905061247991906133a1565b90506000600960008481526020019081526020016000205490506000600883815481106124a9576124a8613372565b5b9060005260206000200154905080600883815481106124cb576124ca613372565b5b90600052602060002001819055508160096000838152602001908152602001600020819055506009600085815260200190815260200160002060009055600880548061251a5761251961379d565b5b6001900381819060005260206000200160009055905550505050565b6000600161254384610f4c565b61254d91906133a1565b905081600660008573ffffffffffffffffffffffffffffffffffffffff1673ffffffffffffffffffffffffffffffffffffffff168152602001908152602001600020600083815260200190815260200160002081905550806007600084815260200190815260200160002081905550505050565b600073ffffffffffffffffffffffffffffffffffffffff168273ffffffffffffffffffffffffffffffffffffffff16036126335760006040517f64a0ae9200000000000000000000000000000000000000000000000000000000815260040161262a9190612af4565b60405180910390fd5b600061264183836000611791565b9050600073ffffffffffffffffffffffffffffffffffffffff168173ffffffffffffffffffffffffffffffffffffffff16146126b55760006040517f73c6ac6e0000000000000000000000000000000000000000000000000000000081526004016126ac9190612af4565b60405180910390fd5b505050565b6126c583838361277e565b61277957600073ffffffffffffffffffffffffffffffffffffffff168373ffffffffffffffffffffffffffffffffffffffff160361273a57806040517f7e27328900000000000000000000000000000000000000000000000000000000815260040161273191906129e6565b60405180910390fd5b81816040517f177e802f000000000000000000000000000000000000000000000000000000008152600401612770929190613349565b60405180910390fd5b505050565b60008073ffffffffffffffffffffffffffffffffffffffff168373ffffffffffffffffffffffffffffffffffffffff161415801561283657508273ffffffffffffffffffffffffffffffffffffffff168473ffffffffffffffffffffffffffffffffffffffff1614806127f757506127f6848461132b565b5b8061283557508273ffffffffffffffffffffffffffffffffffffffff1661281d836115cd565b73ffffffffffffffffffffffffffffffffffffffff16145b5b90509392505050565b6000604051905090565b600080fd5b600080fd5b60007fffffffff0000000000000000000000000000000000000000000000000000000082169050919050565b61288881612853565b811461289357600080fd5b50565b6000813590506128a58161287f565b92915050565b6000602082840312156128c1576128c0612849565b5b60006128cf84828501612896565b91505092915050565b60008115159050919050565b6128ed816128d8565b82525050565b600060208201905061290860008301846128e4565b92915050565b600060ff82169050919050565b6129248161290e565b811461292f57600080fd5b50565b6000813590506129418161291b565b92915050565b60006020828403121561295d5761295c612849565b5b600061296b84828501612932565b91505092915050565b6000819050919050565b61298781612974565b811461299257600080fd5b50565b6000813590506129a48161297e565b92915050565b6000602082840312156129c0576129bf612849565b5b60006129ce84828501612995565b91505092915050565b6129e081612974565b82525050565b60006020820190506129fb60008301846129d7565b92915050565b600081519050919050565b600082825260208201905092915050565b60005b83811015612a3b578082015181840152602081019050612a20565b60008484015250505050565b6000601f19601f8301169050919050565b6000612a6382612a01565b612a6d8185612a0c565b9350612a7d818560208601612a1d565b612a8681612a47565b840191505092915050565b60006020820190508181036000830152612aab8184612a58565b905092915050565b600073ffffffffffffffffffffffffffffffffffffffff82169050919050565b6000612ade82612ab3565b9050919050565b612aee81612ad3565b82525050565b6000602082019050612b096000830184612ae5565b92915050565b612b1881612ad3565b8114612b2357600080fd5b50565b600081359050612b3581612b0f565b92915050565b60008060408385031215612b5257612b51612849565b5b6000612b6085828601612b26565b9250506020612b7185828601612995565b9150509250929050565b60008060408385031215612b9257612b91612849565b5b6000612ba085828601612995565b9250506020612bb185828601612995565b9150509250929050565b600080600060608486031215612bd457612bd3612849565b5b6000612be286828701612b26565b9350506020612bf386828701612b26565b9250506040612c0486828701612995565b9150509250925092565b600060208284031215612c2457612c23612849565b5b6000612c3284828501612b26565b91505092915050565b60008060408385031215612c5257612c51612849565b5b6000612c6085828601612b26565b9250506020612c7185828601612b26565b9150509250929050565b600081519050919050565b600082825260208201905092915050565b6000819050602082019050919050565b612cb081612974565b82525050565b6000612cc28383612ca7565b60208301905092915050565b6000602082019050919050565b6000612ce682612c7b565b612cf08185612c86565b9350612cfb83612c97565b8060005b83811015612d2c578151612d138882612cb6565b9750612d1e83612cce565b925050600181019050612cff565b5085935050505092915050565b60006020820190508181036000830152612d538184612cdb565b905092915050565b612d64816128d8565b8114612d6f57600080fd5b50565b600081359050612d8181612d5b565b92915050565b60008060408385031215612d9e57612d9d612849565b5b6000612dac85828601612b26565b9250506020612dbd85828601612d72565b9150509250929050565b600080fd5b600080fd5b7f4e487b7100000000000000000000000000000000000000000000000000000000600052604160045260246000fd5b612e0982612a47565b810181811067ffffffffffffffff82111715612e2857612e27612dd1565b5b80604052505050565b6000612e3b61283f565b9050612e478282612e00565b919050565b600067ffffffffffffffff821115612e6757612e66612dd1565b5b612e7082612a47565b9050602081019050919050565b82818337600083830152505050565b6000612e9f612e9a84612e4c565b612e31565b905082815260208101848484011115612ebb57612eba612dcc565b5b612ec6848285612e7d565b509392505050565b600082601f830112612ee357612ee2612dc7565b5b8135612ef3848260208601612e8c565b91505092915050565b60008060008060808587031215612f1657612f15612849565b5b6000612f2487828801612b26565b9450506020612f3587828801612b26565b9350506040612f4687828801612995565b925050606085013567ffffffffffffffff811115612f6757612f6661284e565b5b612f7387828801612ece565b91505092959194509250565b7f416c6c207469636b65747320736f6c6400000000000000000000000000000000600082015250565b6000612fb5601083612a0c565b9150612fc082612f7f565b602082019050919050565b60006020820190508181036000830152612fe481612fa8565b9050919050565b7f496e636f7272656374207061796d656e74000000000000000000000000000000600082015250565b6000613021601183612a0c565b915061302c82612feb565b602082019050919050565b6000602082019050818103600083015261305081613014565b9050919050565b7f4e487b7100000000000000000000000000000000000000000000000000000000600052601160045260246000fd5b600061309182612974565b915061309c83612974565b92508282019050808211156130b4576130b3613057565b5b92915050565b60006130c582612974565b91507fffffffffffffffffffffffffffffffffffffffffffffffffffffffffffffffff82036130f7576130f6613057565b5b600182019050919050565b60006060820190506131176000830186612ae5565b61312460208301856129d7565b6131316040830184612ae5565b949350505050565b7f4e487b7100000000000000000000000000000000000000000000000000000000600052602260045260246000fd5b6000600282049050600182168061318057607f821691505b60208210810361319357613192613139565b5b50919050565b7f5469636b6574206e6f7420666f7220726573616c650000000000000000000000600082015250565b60006131cf601583612a0c565b91506131da82613199565b602082019050919050565b600060208201905081810360008301526131fe816131c2565b9050919050565b7f43616e6e6f742062757920796f7572206f776e207469636b6574000000000000600082015250565b600061323b601a83612a0c565b915061324682613205565b602082019050919050565b6000602082019050818103600083015261326a8161322e565b9050919050565b7f4e6f74207469636b6574206f776e657200000000000000000000000000000000600082015250565b60006132a7601083612a0c565b91506132b282613271565b602082019050919050565b600060208201905081810360008301526132d68161329a565b9050919050565b7f5072696365206d757374206265203e2030000000000000000000000000000000600082015250565b6000613313601183612a0c565b915061331e826132dd565b602082019050919050565b6000602082019050818103600083015261334281613306565b9050919050565b600060408201905061335e6000830185612ae5565b61336b60208301846129d7565b9392505050565b7f4e487b7100000000000000000000000000000000000000000000000000000000600052603260045260246000fd5b60006133ac82612974565b91506133b783612974565b92508282039050818111156133cf576133ce613057565b5b92915050565b6000815190506133e48161297e565b92915050565b600060208284031215613400576133ff612849565b5b600061340e848285016133d5565b91505092915050565b7f5469636b657420646f6573206e6f742065786973740000000000000000000000600082015250565b600061344d601583612a0c565b915061345882613417565b602082019050919050565b6000602082019050818103600083015261347c81613440565b9050919050565b600081905092915050565b60008190508160005260206000209050919050565b600081546134b081613168565b6134ba8186613483565b945060018216600081146134d557600181146134ea5761351d565b60ff198316865281151582028601935061351d565b6134f38561348e565b60005b83811015613515578154818901526001820191506020810190506134f6565b838801955050505b50505092915050565b7f2f00000000000000000000000000000000000000000000000000000000000000600082015250565b600061355c600183613483565b915061356782613526565b600182019050919050565b600061357d82612a01565b6135878185613483565b9350613597818560208601612a1d565b80840191505092915050565b7f2e6a736f6e000000000000000000000000000000000000000000000000000000600082015250565b60006135d9600583613483565b91506135e4826135a3565b600582019050919050565b60006135fb82856134a3565b91506136068261354f565b91506136128284613572565b915061361d826135cc565b91508190509392505050565b600081519050919050565b600082825260208201905092915050565b600061365082613629565b61365a8185613634565b935061366a818560208601612a1d565b61367381612a47565b840191505092915050565b60006080820190506136936000830187612ae5565b6136a06020830186612ae5565b6136ad60408301856129d7565b81810360608301526136bf8184613645565b905095945050505050565b6000815190506136d98161287f565b92915050565b6000602082840312156136f5576136f4612849565b5b6000613703848285016136ca565b91505092915050565b7f4e487b7100000000000000000000000000000000000000000000000000000000600052601260045260246000fd5b600061374682612974565b915061375183612974565b9250826137615761376061370c565b5b828204905092915050565b600061377782612974565b915061378283612974565b9250826137925761379161370c565b5b828206905092915050565b7f4e487b7100000000000000000000000000000000000000000000000000000000600052603160045260246000fdfea26469706673582212202dbec1cd6ec25fe32eaaf55621b98e5f16fbcef783bd009fa872e8ed50e35c7464736f6c634300081c0033",
  "linkReferences": {},
  "deployedLinkReferences": {}
}